{
  "_format": "hh-sol-artifact-1",
  "contractName": "Lottery",
  "sourceName": "contracts/Lottery.sol",
  "abi": [
    {
      "inputs": [
        {
          "internalType": "address",
          "name": "vrfCoordinatorV2",
          "type": "address"
        },
        {
          "internalType": "uint256",
          "name": "entranceFee",
          "type": "uint256"
        },
        {
          "internalType": "bytes32",
          "name": "gasLane",
          "type": "bytes32"
        },
        {
          "internalType": "uint64",
          "name": "subscriptionId",
          "type": "uint64"
        },
        {
          "internalType": "uint32",
          "name": "callbackGasLimit",
          "type": "uint32"
        }
      ],
      "stateMutability": "nonpayable",
      "type": "constructor"
    },
    {
      "inputs": [],
      "name": "Lottery__SendEnoughEth",
      "type": "error"
    },
    {
      "inputs": [],
      "name": "Lottery__transfertFailed",
      "type": "error"
    },
    {
      "inputs": [
        {
          "internalType": "address",
          "name": "have",
          "type": "address"
        },
        {
          "internalType": "address",
          "name": "want",
          "type": "address"
        }
      ],
      "name": "OnlyCoordinatorCanFulfill",
      "type": "error"
    },
    {
      "anonymous": false,
      "inputs": [
        {
          "indexed": true,
          "internalType": "address",
          "name": "player",
          "type": "address"
        }
      ],
      "name": "raffleEnter",
      "type": "event"
    },
    {
      "anonymous": false,
      "inputs": [
        {
          "indexed": true,
          "internalType": "uint256",
          "name": "requestId",
          "type": "uint256"
        }
      ],
      "name": "requestedRaffleWinner",
      "type": "event"
    },
    {
      "anonymous": false,
      "inputs": [
        {
          "indexed": false,
          "internalType": "address",
          "name": "winner",
          "type": "address"
        }
      ],
      "name": "winnerPicked",
      "type": "event"
    },
    {
      "inputs": [],
      "name": "enterRaffle",
      "outputs": [],
      "stateMutability": "payable",
      "type": "function"
    },
    {
      "inputs": [],
      "name": "getEntranceFee",
      "outputs": [
        {
          "internalType": "uint256",
          "name": "",
          "type": "uint256"
        }
      ],
      "stateMutability": "view",
      "type": "function"
    },
    {
      "inputs": [
        {
          "internalType": "uint256",
          "name": "index",
          "type": "uint256"
        }
      ],
      "name": "getPlayer",
      "outputs": [
        {
          "internalType": "address",
          "name": "",
          "type": "address"
        }
      ],
      "stateMutability": "view",
      "type": "function"
    },
    {
      "inputs": [],
      "name": "getRecentWinner",
      "outputs": [
        {
          "internalType": "address",
          "name": "",
          "type": "address"
        }
      ],
      "stateMutability": "view",
      "type": "function"
    },
    {
      "inputs": [
        {
          "internalType": "uint256",
          "name": "requestId",
          "type": "uint256"
        },
        {
          "internalType": "uint256[]",
          "name": "randomWords",
          "type": "uint256[]"
        }
      ],
      "name": "rawFulfillRandomWords",
      "outputs": [],
      "stateMutability": "nonpayable",
      "type": "function"
    },
    {
      "inputs": [],
      "name": "requestRandomWinner",
      "outputs": [],
      "stateMutability": "nonpayable",
      "type": "function"
    }
  ],
  "bytecode": "0x6101406040523480156200001257600080fd5b5060405162000ed138038062000ed1833981810160405281019062000038919062000255565b848073ffffffffffffffffffffffffffffffffffffffff1660808173ffffffffffffffffffffffffffffffffffffffff1681525050508360a081815250508473ffffffffffffffffffffffffffffffffffffffff1660c08173ffffffffffffffffffffffffffffffffffffffff16815250508260e081815250508167ffffffffffffffff166101008167ffffffffffffffff16815250508063ffffffff166101208163ffffffff16815250505050505050620002dd565b600080fd5b600073ffffffffffffffffffffffffffffffffffffffff82169050919050565b60006200012182620000f4565b9050919050565b620001338162000114565b81146200013f57600080fd5b50565b600081519050620001538162000128565b92915050565b6000819050919050565b6200016e8162000159565b81146200017a57600080fd5b50565b6000815190506200018e8162000163565b92915050565b6000819050919050565b620001a98162000194565b8114620001b557600080fd5b50565b600081519050620001c9816200019e565b92915050565b600067ffffffffffffffff82169050919050565b620001ee81620001cf565b8114620001fa57600080fd5b50565b6000815190506200020e81620001e3565b92915050565b600063ffffffff82169050919050565b6200022f8162000214565b81146200023b57600080fd5b50565b6000815190506200024f8162000224565b92915050565b600080600080600060a08688031215620002745762000273620000ef565b5b6000620002848882890162000142565b955050602062000297888289016200017d565b9450506040620002aa88828901620001b8565b9350506060620002bd88828901620001fd565b9250506080620002d0888289016200023e565b9150509295509295909350565b60805160a05160c05160e0516101005161012051610b966200033b60003960006103cf015260006103ac0152600061038b0152600061034f01526000818161013b015261022101526000818161016101526101b50152610b966000f3fe6080604052600436106100555760003560e01c806309bc33a71461005a5780631fe543e3146100855780632cfcc539146100ae578063473f1ddc146100b8578063522a1f0b146100e3578063e55ae4e8146100fa575b600080fd5b34801561006657600080fd5b5061006f610137565b60405161007c91906106bc565b60405180910390f35b34801561009157600080fd5b506100ac60048036038101906100a79190610870565b61015f565b005b6100b661021f565b005b3480156100c457600080fd5b506100cd610321565b6040516100da919061090d565b60405180910390f35b3480156100ef57600080fd5b506100f861034b565b005b34801561010657600080fd5b50610121600480360381019061011c9190610928565b610485565b60405161012e919061090d565b60405180910390f35b60007f0000000000000000000000000000000000000000000000000000000000000000905090565b7f000000000000000000000000000000000000000000000000000000000000000073ffffffffffffffffffffffffffffffffffffffff163373ffffffffffffffffffffffffffffffffffffffff161461021157337f00000000000000000000000000000000000000000000000000000000000000006040517f1cf993f4000000000000000000000000000000000000000000000000000000008152600401610208929190610955565b60405180910390fd5b61021b82826104cc565b5050565b7f0000000000000000000000000000000000000000000000000000000000000000341015610279576040517f88a1329500000000000000000000000000000000000000000000000000000000815260040160405180910390fd5b6000339080600181540180825580915050600190039060005260206000200160009091909190916101000a81548173ffffffffffffffffffffffffffffffffffffffff021916908373ffffffffffffffffffffffffffffffffffffffff1602179055503373ffffffffffffffffffffffffffffffffffffffff167f742d070bf0f3edace132a9da8ba725e8cf99c478869cee7f673ed6085e2f8e6460405160405180910390a2565b6000600160009054906101000a900473ffffffffffffffffffffffffffffffffffffffff16905090565b60007f000000000000000000000000000000000000000000000000000000000000000073ffffffffffffffffffffffffffffffffffffffff16635d3b1d307f00000000000000000000000000000000000000000000000000000000000000007f000000000000000000000000000000000000000000000000000000000000000060037f000000000000000000000000000000000000000000000000000000000000000060016040518663ffffffff1660e01b81526004016104109594939291906109f6565b6020604051808303816000875af115801561042f573d6000803e3d6000fd5b505050506040513d601f19601f820116820180604052508101906104539190610a5e565b9050807fe0abfa81226f1e2ce09ba287cbb4c241e89b2b891a389274bb7d9c46e344daf060405160405180910390a250565b600080828154811061049a57610499610a8b565b5b9060005260206000200160009054906101000a900473ffffffffffffffffffffffffffffffffffffffff169050919050565b60008080549050826000815181106104e7576104e6610a8b565b5b60200260200101516104f99190610ae9565b905060008082815481106105105761050f610a8b565b5b9060005260206000200160009054906101000a900473ffffffffffffffffffffffffffffffffffffffff16905080600160006101000a81548173ffffffffffffffffffffffffffffffffffffffff021916908373ffffffffffffffffffffffffffffffffffffffff1602179055506000600160009054906101000a900473ffffffffffffffffffffffffffffffffffffffff1673ffffffffffffffffffffffffffffffffffffffff16476040516105c690610b4b565b60006040518083038185875af1925050503d8060008114610603576040519150601f19603f3d011682016040523d82523d6000602084013e610608565b606091505b5050905080610643576040517f8456a86e00000000000000000000000000000000000000000000000000000000815260040160405180910390fd5b7f794919b0f484b8e90b1b817ac7f880f846fbd8a9813dee2a378e820db094e3d1600160009054906101000a900473ffffffffffffffffffffffffffffffffffffffff16604051610694919061090d565b60405180910390a15050505050565b6000819050919050565b6106b6816106a3565b82525050565b60006020820190506106d160008301846106ad565b92915050565b6000604051905090565b600080fd5b600080fd5b6106f4816106a3565b81146106ff57600080fd5b50565b600081359050610711816106eb565b92915050565b600080fd5b6000601f19601f8301169050919050565b7f4e487b7100000000000000000000000000000000000000000000000000000000600052604160045260246000fd5b6107658261071c565b810181811067ffffffffffffffff821117156107845761078361072d565b5b80604052505050565b60006107976106d7565b90506107a3828261075c565b919050565b600067ffffffffffffffff8211156107c3576107c261072d565b5b602082029050602081019050919050565b600080fd5b60006107ec6107e7846107a8565b61078d565b9050808382526020820190506020840283018581111561080f5761080e6107d4565b5b835b8181101561083857806108248882610702565b845260208401935050602081019050610811565b5050509392505050565b600082601f83011261085757610856610717565b5b81356108678482602086016107d9565b91505092915050565b60008060408385031215610887576108866106e1565b5b600061089585828601610702565b925050602083013567ffffffffffffffff8111156108b6576108b56106e6565b5b6108c285828601610842565b9150509250929050565b600073ffffffffffffffffffffffffffffffffffffffff82169050919050565b60006108f7826108cc565b9050919050565b610907816108ec565b82525050565b600060208201905061092260008301846108fe565b92915050565b60006020828403121561093e5761093d6106e1565b5b600061094c84828501610702565b91505092915050565b600060408201905061096a60008301856108fe565b61097760208301846108fe565b9392505050565b6000819050919050565b6109918161097e565b82525050565b600067ffffffffffffffff82169050919050565b6109b481610997565b82525050565b600061ffff82169050919050565b6109d1816109ba565b82525050565b600063ffffffff82169050919050565b6109f0816109d7565b82525050565b600060a082019050610a0b6000830188610988565b610a1860208301876109ab565b610a2560408301866109c8565b610a3260608301856109e7565b610a3f60808301846109e7565b9695505050505050565b600081519050610a58816106eb565b92915050565b600060208284031215610a7457610a736106e1565b5b6000610a8284828501610a49565b91505092915050565b7f4e487b7100000000000000000000000000000000000000000000000000000000600052603260045260246000fd5b7f4e487b7100000000000000000000000000000000000000000000000000000000600052601260045260246000fd5b6000610af4826106a3565b9150610aff836106a3565b925082610b0f57610b0e610aba565b5b828206905092915050565b600081905092915050565b50565b6000610b35600083610b1a565b9150610b4082610b25565b600082019050919050565b6000610b5682610b28565b915081905091905056fea26469706673582212203de857e9ba6f872101fedfc9cc08828c88d7747d993f4ff29e7b503b07bec70a64736f6c63430008110033",
  "linkReferences": {},
  "deployedLinkReferences": {}
}